:100000000C945C000C9479000C9479000C947900A9
:100010000C9479000C9479000C9479000C9479007C
:100020000C9479000C9479000C9479000C9479006C
:100030000C9479000C9479000C9479000C9479005C
:100040000C947B000C9479000C9479000C9479004A
:100050000C9479000C9479000C9479000C9479003C
:100060000C9479000C947900000000002400270013
:100070002A0000000000250028002B0004040404CE
:100080000404040402020202020203030303030342
:10009000010204081020408001020408102001021F
:1000A00004081020000000080002010000030407FB
:1000B000000000000000000011241FBECFEFD8E0B8
:1000C000DEBFCDBF11E0A0E0B1E0EAE6F3E002C0A0
:1000D00005900D92A230B107D9F721E0A2E0B1E07E
:1000E00001C01D92AD30B207E1F70E94C5000C942B
:1000F000B3010C9400001F920F920FB60F921124BF
:100100002F933F938F939F93AF93BF938091090158
:1001100090910A01A0910B01B0910C01309108015E
:1001200023E0230F2D3720F40196A11DB11D05C03A
:1001300026E8230F0296A11DB11D2093080180938C
:10014000090190930A01A0930B01B0930C018091D7
:10015000040190910501A0910601B091070101965B
:10016000A11DB11D8093040190930501A093060188
:10017000B0930701BF91AF919F918F913F912F91C4
:100180000F900FBE0F901F901895789484B58260E1
:1001900084BD84B5816084BD85B5826085BD85B52B
:1001A000816085BD80916E00816080936E001092A9
:1001B0008100809181008260809381008091810024
:1001C00081608093810080918000816080938000B5
:1001D0008091B10084608093B1008091B000816013
:1001E0008093B00080917A00846080937A0080913F
:1001F0007A00826080937A0080917A008160809397
:100200007A0080917A00806880937A001092C10011
:1002100040E050E0CA010296FC01E057FF4F2491F4
:10022000FC01E458FF4F8491882399F090E0880FF7
:10023000991FFC01E859FF4FA591B491FC01EE58BC
:10024000FF4F859194918FB7F894EC91E22BEC934A
:100250008FBF4F5F5F4F4A305105E1F610920001AA
:10026000C0E0D0E08091000120E4829FC001112411
:1002700080937C0080917A00806480937A008091E2
:100280007A0086FDFCCF809178002091790090E083
:10029000922B909303018093020140E050E0609123
:1002A0000201CA010296FC01EC55FF4F3491FC019A
:1002B000E057FF4F2491FC01E458FF4FE491EE23F7
:1002C00009F43BC0332339F1333091F038F4313045
:1002D000A9F0323001F584B58F7D12C0373091F02E
:1002E0003830A1F03430B9F4809180008F7D03C0A4
:1002F000809180008F77809380000DC084B58F77C8
:1003000084BD09C08091B0008F7703C08091B00098
:100310008F7D8093B000F0E0EE0FFF1FEE58FF4F8F
:10032000A591B4918FB7F894EC9160FD03C020952E
:100330002E2301C02E2B2C938FBF80910201909110
:1003400003019595879590930301809302014F5F78
:100350005F4F4A30510509F0A2CF209709F482CFB0
:0A0360000E9400007FCFF894FFCF49
:02036A00010090
:00000001FF
